{
  "_format": "hh-sol-artifact-1",
  "contractName": "Board",
  "sourceName": "contracts/Board.sol",
  "abi": [
    {
      "inputs": [
        {
          "internalType": "string",
          "name": "_text",
          "type": "string"
        },
        {
          "internalType": "uint256",
          "name": "_date",
          "type": "uint256"
        }
      ],
      "name": "createNote",
      "outputs": [],
      "stateMutability": "nonpayable",
      "type": "function"
    },
    {
      "inputs": [],
      "name": "getNotes",
      "outputs": [
        {
          "components": [
            {
              "internalType": "string",
              "name": "text",
              "type": "string"
            },
            {
              "internalType": "uint256",
              "name": "date",
              "type": "uint256"
            }
          ],
          "internalType": "struct Board.Note[]",
          "name": "",
          "type": "tuple[]"
        }
      ],
      "stateMutability": "view",
      "type": "function"
    }
  ],
  "bytecode": "0x608060405234801561001057600080fd5b50610823806100206000396000f3fe608060405234801561001057600080fd5b50600436106100365760003560e01c8063935040691461003b578063b4af200d14610057575b600080fd5b610055600480360381019061005091906102c0565b610075565b005b61005f610120565b60405161006c91906104be565b60405180910390f35b6000604051806040016040528085858080601f016020809104026020016040519081016040528093929190818152602001838380828437600081840152601f19601f820116905080830192505050505050508152602001838152509080600181540180825580915050600190039060005260206000209060020201600090919091909150600082015181600001908161010e919061071b565b50602082015181600101555050505050565b60606000805480602002602001604051908101604052809291908181526020016000905b8282101561021257838290600052602060002090600202016040518060400160405290816000820180546101779061053e565b80601f01602080910402602001604051908101604052809291908181526020018280546101a39061053e565b80156101f05780601f106101c5576101008083540402835291602001916101f0565b820191906000526020600020905b8154815290600101906020018083116101d357829003601f168201915b5050505050815260200160018201548152505081526020019060010190610144565b50505050905090565b600080fd5b600080fd5b600080fd5b600080fd5b600080fd5b60008083601f84011261024a57610249610225565b5b8235905067ffffffffffffffff8111156102675761026661022a565b5b6020830191508360018202830111156102835761028261022f565b5b9250929050565b6000819050919050565b61029d8161028a565b81146102a857600080fd5b50565b6000813590506102ba81610294565b92915050565b6000806000604084860312156102d9576102d861021b565b5b600084013567ffffffffffffffff8111156102f7576102f6610220565b5b61030386828701610234565b93509350506020610316868287016102ab565b9150509250925092565b600081519050919050565b600082825260208201905092915050565b6000819050602082019050919050565b600081519050919050565b600082825260208201905092915050565b60005b8381101561038657808201518184015260208101905061036b565b60008484015250505050565b6000601f19601f8301169050919050565b60006103ae8261034c565b6103b88185610357565b93506103c8818560208601610368565b6103d181610392565b840191505092915050565b6103e58161028a565b82525050565b6000604083016000830151848203600086015261040882826103a3565b915050602083015161041d60208601826103dc565b508091505092915050565b600061043483836103eb565b905092915050565b6000602082019050919050565b600061045482610320565b61045e818561032b565b9350836020820285016104708561033c565b8060005b858110156104ac578484038952815161048d8582610428565b94506104988361043c565b925060208a01995050600181019050610474565b50829750879550505050505092915050565b600060208201905081810360008301526104d88184610449565b905092915050565b7f4e487b7100000000000000000000000000000000000000000000000000000000600052604160045260246000fd5b7f4e487b7100000000000000000000000000000000000000000000000000000000600052602260045260246000fd5b6000600282049050600182168061055657607f821691505b6020821081036105695761056861050f565b5b50919050565b60008190508160005260206000209050919050565b60006020601f8301049050919050565b600082821b905092915050565b6000600883026105d17fffffffffffffffffffffffffffffffffffffffffffffffffffffffffffffffff82610594565b6105db8683610594565b95508019841693508086168417925050509392505050565b6000819050919050565b600061061861061361060e8461028a565b6105f3565b61028a565b9050919050565b6000819050919050565b610632836105fd565b61064661063e8261061f565b8484546105a1565b825550505050565b600090565b61065b61064e565b610666818484610629565b505050565b5b8181101561068a5761067f600082610653565b60018101905061066c565b5050565b601f8211156106cf576106a08161056f565b6106a984610584565b810160208510156106b8578190505b6106cc6106c485610584565b83018261066b565b50505b505050565b600082821c905092915050565b60006106f2600019846008026106d4565b1980831691505092915050565b600061070b83836106e1565b9150826002028217905092915050565b6107248261034c565b67ffffffffffffffff81111561073d5761073c6104e0565b5b610747825461053e565b61075282828561068e565b600060209050601f8311600181146107855760008415610773578287015190505b61077d85826106ff565b8655506107e5565b601f1984166107938661056f565b60005b828110156107bb57848901518255600182019150602085019450602081019050610796565b868310156107d857848901516107d4601f8916826106e1565b8355505b6001600288020188555050505b50505050505056fea2646970667358221220f82c850ecddd0279ea6bb7cbc9f1bc986c3fc471df260922ebcc577beaed7c2a64736f6c63430008110033",
  "linkReferences": {},
  "deployedLinkReferences": {}
}